{
  "address": "0x1d2f0FCAB2254c3D46a582f925C33A40971eB399",
  "abi": [
    {
      "inputs": [
        {
          "internalType": "address",
          "name": "_equipmentNFT",
          "type": "address"
        },
        {
          "internalType": "address",
          "name": "_lobsterToken",
          "type": "address"
        },
        {
          "internalType": "uint256",
          "name": "_lobsterAmount",
          "type": "uint256"
        }
      ],
      "stateMutability": "nonpayable",
      "type": "constructor"
    },
    {
      "anonymous": false,
      "inputs": [
        {
          "indexed": false,
          "internalType": "uint256",
          "name": "amount",
          "type": "uint256"
        }
      ],
      "name": "AreaBaited",
      "type": "event"
    },
    {
      "anonymous": false,
      "inputs": [
        {
          "indexed": true,
          "internalType": "address",
          "name": "equipmentNFT",
          "type": "address"
        },
        {
          "indexed": true,
          "internalType": "address",
          "name": "lobsterToken",
          "type": "address"
        },
        {
          "indexed": false,
          "internalType": "uint256",
          "name": "lobsterAmount",
          "type": "uint256"
        }
      ],
      "name": "FishingSpotCreated",
      "type": "event"
    },
    {
      "anonymous": false,
      "inputs": [
        {
          "indexed": true,
          "internalType": "address",
          "name": "previousOwner",
          "type": "address"
        },
        {
          "indexed": true,
          "internalType": "address",
          "name": "newOwner",
          "type": "address"
        }
      ],
      "name": "OwnershipTransferred",
      "type": "event"
    },
    {
      "anonymous": false,
      "inputs": [
        {
          "indexed": true,
          "internalType": "address",
          "name": "fisher",
          "type": "address"
        },
        {
          "indexed": false,
          "internalType": "uint256",
          "name": "amount",
          "type": "uint256"
        }
      ],
      "name": "SuccessfulFishing",
      "type": "event"
    },
    {
      "inputs": [
        {
          "internalType": "uint256",
          "name": "_amount",
          "type": "uint256"
        }
      ],
      "name": "baitArea",
      "outputs": [],
      "stateMutability": "nonpayable",
      "type": "function"
    },
    {
      "inputs": [],
      "name": "equipmentNFT",
      "outputs": [
        {
          "internalType": "contract IERC721",
          "name": "",
          "type": "address"
        }
      ],
      "stateMutability": "view",
      "type": "function"
    },
    {
      "inputs": [],
      "name": "fish",
      "outputs": [],
      "stateMutability": "nonpayable",
      "type": "function"
    },
    {
      "inputs": [
        {
          "internalType": "address",
          "name": "",
          "type": "address"
        }
      ],
      "name": "lastFishingTime",
      "outputs": [
        {
          "internalType": "uint256",
          "name": "",
          "type": "uint256"
        }
      ],
      "stateMutability": "view",
      "type": "function"
    },
    {
      "inputs": [],
      "name": "lobsterAmount",
      "outputs": [
        {
          "internalType": "uint256",
          "name": "",
          "type": "uint256"
        }
      ],
      "stateMutability": "view",
      "type": "function"
    },
    {
      "inputs": [],
      "name": "lobsterToken",
      "outputs": [
        {
          "internalType": "contract ILobsterToken",
          "name": "",
          "type": "address"
        }
      ],
      "stateMutability": "view",
      "type": "function"
    },
    {
      "inputs": [],
      "name": "owner",
      "outputs": [
        {
          "internalType": "address",
          "name": "",
          "type": "address"
        }
      ],
      "stateMutability": "view",
      "type": "function"
    },
    {
      "inputs": [],
      "name": "renounceOwnership",
      "outputs": [],
      "stateMutability": "nonpayable",
      "type": "function"
    },
    {
      "inputs": [
        {
          "internalType": "address",
          "name": "newOwner",
          "type": "address"
        }
      ],
      "name": "transferOwnership",
      "outputs": [],
      "stateMutability": "nonpayable",
      "type": "function"
    }
  ],
  "transactionHash": "0x6308c38ba2a7a00b6d4f987968818daa6be06cd480504493f62b9e880dd95788",
  "args": [
    "0xba00A0BCD9F4Dea88d26660787485cbc4A0D8490",
    "0xA1d94Ab848405Fe9F6FA914513148349532F7dc2",
    "1000000000000000000"
  ],
  "numDeployments": 1,
  "solcInputHash": "2b50e38dcd84ea60880d810f7f8a3ec8",
  "bytecode": "0x608060405234801561001057600080fd5b5060405161096738038061096783398101604081905261002f9161019a565b6100383361012e565b60018055600280546001600160a01b038581166001600160a01b031992831617909255600380549285169290911682179055600482815560405163095ea7b360e01b81523091810191909152600019602482015263095ea7b3906044016020604051808303816000875af11580156100b4573d6000803e3d6000fd5b505050506040513d601f19601f820116820180604052508101906100d891906101d6565b50816001600160a01b0316836001600160a01b03167f5d83b8ea35f7eefe96b220f82f580f7977f0ad5e4f3f9c2b4139e0b86f2450d68360405161011e91815260200190565b60405180910390a35050506101ff565b600080546001600160a01b038381166001600160a01b0319831681178455604051919092169283917f8be0079c531659141344cd1fd0a4f28419497f9722a3daafe3b4186f6b6457e09190a35050565b80516001600160a01b038116811461019557600080fd5b919050565b6000806000606084860312156101af57600080fd5b6101b88461017e565b92506101c66020850161017e565b9150604084015190509250925092565b6000602082840312156101e857600080fd5b815180151581146101f857600080fd5b9392505050565b6107598061020e6000396000f3fe608060405234801561001057600080fd5b50600436106100935760003560e01c8063934d0b8311610066578063934d0b831461010d578063962e0a1614610116578063b4f78bf214610129578063d14775d91461013c578063f2fde38b1461014457600080fd5b80636a266d8e146100985780636e64c3cc146100cb578063715018a6146100e05780638da5cb5b146100e8575b600080fd5b6100b86100a6366004610678565b60056020526000908152604090205481565b6040519081526020015b60405180910390f35b6100de6100d93660046106a8565b610157565b005b6100de6101f9565b6000546001600160a01b03165b6040516001600160a01b0390911681526020016100c2565b6100b860045481565b6002546100f5906001600160a01b031681565b6003546100f5906001600160a01b031681565b6100de61020d565b6100de610152366004610678565b6104fc565b61015f610575565b6003546040516304c5ba4760e11b8152600481018390526001600160a01b039091169063098b748e90602401600060405180830381600087803b1580156101a557600080fd5b505af11580156101b9573d6000803e3d6000fd5b505050507fba7b5bda3931f54ac807306a62613ecf2a5540abdfeb09267eb4455e30a4346b816040516101ee91815260200190565b60405180910390a150565b610201610575565b61020b60006105cf565b565b61021561061f565b6002546040516370a0823160e01b81523360048201526000916001600160a01b0316906370a0823190602401602060405180830381865afa15801561025e573d6000803e3d6000fd5b505050506040513d601f19601f8201168201806040525081019061028291906106c1565b116102df5760405162461bcd60e51b815260206004820152602260248201527f596f75206e6565642061204c6f627374657220506f74204e465420746f2066696044820152610e6d60f31b60648201526084015b60405180910390fd5b336000908152600560205260409020546102fa90603c6106da565b4210156103685760405162461bcd60e51b815260206004820152603660248201527f506c65617365207761697420666f72206174206c656173742031206d696e757460448201527532903132b337b932903334b9b434b7339030b3b0b4b760511b60648201526084016102d6565b600480546003546040516370a0823160e01b8152309381019390935290916001600160a01b03909116906370a0823190602401602060405180830381865afa1580156103b8573d6000803e3d6000fd5b505050506040513d601f19601f820116820180604052508101906103dc91906106c1565b101561042a5760405162461bcd60e51b815260206004820152601e60248201527f4e6f7420656e6f756768206c6f627374657220696e2074686520706f6f6c000060448201526064016102d6565b600354600480546040516323b872dd60e01b8152309281019290925233602483015260448201526001600160a01b03909116906323b872dd906064016020604051808303816000875af1158015610485573d6000803e3d6000fd5b505050506040513d601f19601f820116820180604052508101906104a99190610701565b503360008181526005602090815260409182902042905560045491519182527fc1fbffd5984067350b62eb3806fc67acd5aa37e567fd724816cb3b0754624baf910160405180910390a261020b60018055565b610504610575565b6001600160a01b0381166105695760405162461bcd60e51b815260206004820152602660248201527f4f776e61626c653a206e6577206f776e657220697320746865207a65726f206160448201526564647265737360d01b60648201526084016102d6565b610572816105cf565b50565b6000546001600160a01b0316331461020b5760405162461bcd60e51b815260206004820181905260248201527f4f776e61626c653a2063616c6c6572206973206e6f7420746865206f776e657260448201526064016102d6565b600080546001600160a01b038381166001600160a01b0319831681178455604051919092169283917f8be0079c531659141344cd1fd0a4f28419497f9722a3daafe3b4186f6b6457e09190a35050565b6002600154036106715760405162461bcd60e51b815260206004820152601f60248201527f5265656e7472616e637947756172643a207265656e7472616e742063616c6c0060448201526064016102d6565b6002600155565b60006020828403121561068a57600080fd5b81356001600160a01b03811681146106a157600080fd5b9392505050565b6000602082840312156106ba57600080fd5b5035919050565b6000602082840312156106d357600080fd5b5051919050565b808201808211156106fb57634e487b7160e01b600052601160045260246000fd5b92915050565b60006020828403121561071357600080fd5b815180151581146106a157600080fdfea264697066735822122068f81a251e37c1da7fffc20c3121a991c0690cd0c4ecfac9e029212261d2a9bf64736f6c63430008140033",
  "devdoc": {
    "kind": "dev",
    "methods": {
      "owner()": {
        "details": "Returns the address of the current owner."
      },
      "renounceOwnership()": {
        "details": "Leaves the contract without owner. It will not be possible to call `onlyOwner` functions anymore. Can only be called by the current owner. NOTE: Renouncing ownership will leave the contract without an owner, thereby removing any functionality that is only available to the owner."
      },
      "transferOwnership(address)": {
        "details": "Transfers ownership of the contract to a new account (`newOwner`). Can only be called by the current owner."
      }
    },
    "version": 1
  },
  "userdoc": {
    "kind": "user",
    "methods": {},
    "version": 1
  },
  "storageLayout": {
    "storage": [
      {
        "astId": 7,
        "contract": "contracts/FishingSpot.sol:FishingSpot",
        "label": "_owner",
        "offset": 0,
        "slot": "0",
        "type": "t_address"
      },
      {
        "astId": 123,
        "contract": "contracts/FishingSpot.sol:FishingSpot",
        "label": "_status",
        "offset": 0,
        "slot": "1",
        "type": "t_uint256"
      },
      {
        "astId": 3606,
        "contract": "contracts/FishingSpot.sol:FishingSpot",
        "label": "equipmentNFT",
        "offset": 0,
        "slot": "2",
        "type": "t_contract(IERC721)1899"
      },
      {
        "astId": 3609,
        "contract": "contracts/FishingSpot.sol:FishingSpot",
        "label": "lobsterToken",
        "offset": 0,
        "slot": "3",
        "type": "t_contract(ILobsterToken)3809"
      },
      {
        "astId": 3611,
        "contract": "contracts/FishingSpot.sol:FishingSpot",
        "label": "lobsterAmount",
        "offset": 0,
        "slot": "4",
        "type": "t_uint256"
      },
      {
        "astId": 3615,
        "contract": "contracts/FishingSpot.sol:FishingSpot",
        "label": "lastFishingTime",
        "offset": 0,
        "slot": "5",
        "type": "t_mapping(t_address,t_uint256)"
      }
    ],
    "types": {
      "t_address": {
        "encoding": "inplace",
        "label": "address",
        "numberOfBytes": "20"
      },
      "t_contract(IERC721)1899": {
        "encoding": "inplace",
        "label": "contract IERC721",
        "numberOfBytes": "20"
      },
      "t_contract(ILobsterToken)3809": {
        "encoding": "inplace",
        "label": "contract ILobsterToken",
        "numberOfBytes": "20"
      },
      "t_mapping(t_address,t_uint256)": {
        "encoding": "mapping",
        "key": "t_address",
        "label": "mapping(address => uint256)",
        "numberOfBytes": "32",
        "value": "t_uint256"
      },
      "t_uint256": {
        "encoding": "inplace",
        "label": "uint256",
        "numberOfBytes": "32"
      }
    }
  }
}